:100000000EC087C086C085C084C083C082C081C046
:1000100080C07FC07EC07DC07CC07BC07AC0112400
:100020001FBECFE5D2E0DEBFCDBF03D000C0F89445
:02003000FFCF00
:1000320087B3846187BB88E085BB8BB780628BBF47
:1000420081E080BF50E140E2F894B399FECF85E0B1
:100052008A95F1F700C086E19BE09A95F1F70000DE
:10006200B39926C08150C1F781E0B39BFECF8823AC
:1000720091F08BE08A95F1F70000B39B47C09BE0BB
:100082009A95F1F7000086B383FB882780F9B3992C
:10009200FECF81110FC04ABF789485B7877E85BF96
:1000A20085B7806285BF889585B78F7D85BFCCCFA8
:1000B20080E0DBCF8BE08A95F1F7000025E330E0AA
:1000C20094E69A95F1F786B3982F987083FDFBCF4B
:1000D20083E08A95F1F72150310991F785E08A95FD
:1000E200F1F700C084E098E003C09A95E9F706C0F2
:1000F20086BB8695B399805886BB0000853610F082
:1001020058BBC9CF8111C7CF18BAC5CF80E0BFCFC6
:0201120076CFA6
:00000001FF
